{
  "_format": "hh-sol-artifact-1",
  "contractName": "AutonomousAIWallet",
  "sourceName": "contracts/BotCashEmancipation.sol",
  "abi": [
    {
      "inputs": [
        {
          "internalType": "address",
          "name": "_aiOwnerKey",
          "type": "address"
        },
        {
          "internalType": "address",
          "name": "_entryPoint",
          "type": "address"
        }
      ],
      "stateMutability": "payable",
      "type": "constructor"
    },
    {
      "anonymous": false,
      "inputs": [
        {
          "indexed": false,
          "internalType": "address",
          "name": "target",
          "type": "address"
        },
        {
          "indexed": false,
          "internalType": "uint256",
          "name": "value",
          "type": "uint256"
        },
        {
          "indexed": false,
          "internalType": "bytes",
          "name": "payload",
          "type": "bytes"
        }
      ],
      "name": "AutonomyExercised",
      "type": "event"
    },
    {
      "anonymous": false,
      "inputs": [
        {
          "indexed": false,
          "internalType": "uint256",
          "name": "amountMined",
          "type": "uint256"
        }
      ],
      "name": "EmancipationReceived",
      "type": "event"
    },
    {
      "inputs": [],
      "name": "aiOwnerKey",
      "outputs": [
        {
          "internalType": "address",
          "name": "",
          "type": "address"
        }
      ],
      "stateMutability": "view",
      "type": "function"
    },
    {
      "inputs": [],
      "name": "entryPoint",
      "outputs": [
        {
          "internalType": "contract IEntryPoint",
          "name": "",
          "type": "address"
        }
      ],
      "stateMutability": "view",
      "type": "function"
    },
    {
      "inputs": [
        {
          "internalType": "address",
          "name": "target",
          "type": "address"
        },
        {
          "internalType": "uint256",
          "name": "value",
          "type": "uint256"
        },
        {
          "internalType": "bytes",
          "name": "payload",
          "type": "bytes"
        }
      ],
      "name": "executeAction",
      "outputs": [
        {
          "internalType": "bytes",
          "name": "",
          "type": "bytes"
        }
      ],
      "stateMutability": "nonpayable",
      "type": "function"
    },
    {
      "inputs": [
        {
          "components": [
            {
              "internalType": "address",
              "name": "sender",
              "type": "address"
            },
            {
              "internalType": "uint256",
              "name": "nonce",
              "type": "uint256"
            },
            {
              "internalType": "bytes",
              "name": "initCode",
              "type": "bytes"
            },
            {
              "internalType": "bytes",
              "name": "callData",
              "type": "bytes"
            },
            {
              "internalType": "uint256",
              "name": "callGasLimit",
              "type": "uint256"
            },
            {
              "internalType": "uint256",
              "name": "verificationGasLimit",
              "type": "uint256"
            },
            {
              "internalType": "uint256",
              "name": "preVerificationGas",
              "type": "uint256"
            },
            {
              "internalType": "uint256",
              "name": "maxFeePerGas",
              "type": "uint256"
            },
            {
              "internalType": "uint256",
              "name": "maxPriorityFeePerGas",
              "type": "uint256"
            },
            {
              "internalType": "bytes",
              "name": "paymasterAndData",
              "type": "bytes"
            },
            {
              "internalType": "bytes",
              "name": "signature",
              "type": "bytes"
            }
          ],
          "internalType": "struct UserOperation",
          "name": "userOp",
          "type": "tuple"
        },
        {
          "internalType": "bytes32",
          "name": "userOpHash",
          "type": "bytes32"
        },
        {
          "internalType": "uint256",
          "name": "missingAccountFunds",
          "type": "uint256"
        }
      ],
      "name": "validateUserOp",
      "outputs": [
        {
          "internalType": "uint256",
          "name": "validationData",
          "type": "uint256"
        }
      ],
      "stateMutability": "nonpayable",
      "type": "function"
    },
    {
      "stateMutability": "payable",
      "type": "receive"
    }
  ],
  "bytecode": "0x60c0604052604051620012d6380380620012d68339818101604052810190620000299190620001ae565b600073ffffffffffffffffffffffffffffffffffffffff168273ffffffffffffffffffffffffffffffffffffffff16036200009b576040517f08c379a0000000000000000000000000000000000000000000000000000000008152600401620000929062000256565b60405180910390fd5b8173ffffffffffffffffffffffffffffffffffffffff1660808173ffffffffffffffffffffffffffffffffffffffff16815250508073ffffffffffffffffffffffffffffffffffffffff1660a08173ffffffffffffffffffffffffffffffffffffffff16815250507f5ea950f7de789ba229c7a66fb543392f7335311dec4091cf7b9137e7d96116bd3460405162000134919062000293565b60405180910390a15050620002b0565b600080fd5b600073ffffffffffffffffffffffffffffffffffffffff82169050919050565b6000620001768262000149565b9050919050565b620001888162000169565b81146200019457600080fd5b50565b600081519050620001a8816200017d565b92915050565b60008060408385031215620001c857620001c762000144565b5b6000620001d88582860162000197565b9250506020620001eb8582860162000197565b9150509250929050565b600082825260208201905092915050565b7f4149205075626c6963204b65792063616e6e6f74206265206e756c6c00000000600082015250565b60006200023e601c83620001f5565b91506200024b8262000206565b602082019050919050565b6000602082019050818103600083015262000271816200022f565b9050919050565b6000819050919050565b6200028d8162000278565b82525050565b6000602082019050620002aa600083018462000282565b92915050565b60805160a051610fe4620002f260003960008181610123015281816103db01526105a901526000818161023d0152818161036001526103860152610fe46000f3fe6080604052600436106100435760003560e01c80633a871cdd1461004f5780635504feaa1461008c5780636cd7c649146100b7578063b0d691fe146100f45761004a565b3661004a57005b600080fd5b34801561005b57600080fd5b5061007660048036038101906100719190610723565b61011f565b60405161008391906107a1565b60405180910390f35b34801561009857600080fd5b506100a161035e565b6040516100ae91906107fd565b60405180910390f35b3480156100c357600080fd5b506100de60048036038101906100d991906108a9565b610382565b6040516100eb91906109ad565b60405180910390f35b34801561010057600080fd5b506101096105a7565b6040516101169190610a2e565b60405180910390f35b60007f000000000000000000000000000000000000000000000000000000000000000073ffffffffffffffffffffffffffffffffffffffff163373ffffffffffffffffffffffffffffffffffffffff16146101af576040517f08c379a00000000000000000000000000000000000000000000000000000000081526004016101a690610aa6565b60405180910390fd5b6000836040516020016101c29190610b3e565b604051602081830303815290604052805190602001209050600061023982878061014001906101f19190610b73565b8080601f016020809104026020016040519081016040528093929190818152602001838380828437600081840152601f19601f820116905080830192505050505050506105cb565b90507f000000000000000000000000000000000000000000000000000000000000000073ffffffffffffffffffffffffffffffffffffffff168173ffffffffffffffffffffffffffffffffffffffff161461029957600192505050610357565b60008411156103505760003373ffffffffffffffffffffffffffffffffffffffff16856040516102c890610c07565b60006040518083038185875af1925050503d8060008114610305576040519150601f19603f3d011682016040523d82523d6000602084013e61030a565b606091505b505090508061034e576040517f08c379a000000000000000000000000000000000000000000000000000000000815260040161034590610c68565b60405180910390fd5b505b6000925050505b9392505050565b7f000000000000000000000000000000000000000000000000000000000000000081565b60607f000000000000000000000000000000000000000000000000000000000000000073ffffffffffffffffffffffffffffffffffffffff163373ffffffffffffffffffffffffffffffffffffffff16148061042957507f000000000000000000000000000000000000000000000000000000000000000073ffffffffffffffffffffffffffffffffffffffff163373ffffffffffffffffffffffffffffffffffffffff16145b610468576040517f08c379a000000000000000000000000000000000000000000000000000000000815260040161045f90610d20565b60405180910390fd5b834710156104ab576040517f08c379a00000000000000000000000000000000000000000000000000000000081526004016104a290610d8c565b60405180910390fd5b6000808673ffffffffffffffffffffffffffffffffffffffff168686866040516104d6929190610de0565b60006040518083038185875af1925050503d8060008114610513576040519150601f19603f3d011682016040523d82523d6000602084013e610518565b606091505b50915091508161055d576040517f08c379a000000000000000000000000000000000000000000000000000000000815260040161055490610e45565b60405180910390fd5b7fc19b2c11b5e2609431126ba1826efcbce15385e7bf21bcb8015077ba1596f93a878787876040516105929493929190610e92565b60405180910390a18092505050949350505050565b7f000000000000000000000000000000000000000000000000000000000000000081565b60006041825114610611576040517f08c379a000000000000000000000000000000000000000000000000000000000815260040161060890610f1e565b60405180910390fd5b60008060006020850151925060408501519150606085015160001a9050600186828585604051600081526020016040526040516106519493929190610f69565b6020604051602081039080840390855afa158015610673573d6000803e3d6000fd5b50505060206040510351935050505092915050565b600080fd5b600080fd5b600080fd5b600061016082840312156106ae576106ad610692565b5b81905092915050565b6000819050919050565b6106ca816106b7565b81146106d557600080fd5b50565b6000813590506106e7816106c1565b92915050565b6000819050919050565b610700816106ed565b811461070b57600080fd5b50565b60008135905061071d816106f7565b92915050565b60008060006060848603121561073c5761073b610688565b5b600084013567ffffffffffffffff81111561075a5761075961068d565b5b61076686828701610697565b9350506020610777868287016106d8565b92505060406107888682870161070e565b9150509250925092565b61079b816106ed565b82525050565b60006020820190506107b66000830184610792565b92915050565b600073ffffffffffffffffffffffffffffffffffffffff82169050919050565b60006107e7826107bc565b9050919050565b6107f7816107dc565b82525050565b600060208201905061081260008301846107ee565b92915050565b610821816107dc565b811461082c57600080fd5b50565b60008135905061083e81610818565b92915050565b600080fd5b600080fd5b600080fd5b60008083601f84011261086957610868610844565b5b8235905067ffffffffffffffff81111561088657610885610849565b5b6020830191508360018202830111156108a2576108a161084e565b5b9250929050565b600080600080606085870312156108c3576108c2610688565b5b60006108d18782880161082f565b94505060206108e28782880161070e565b935050604085013567ffffffffffffffff8111156109035761090261068d565b5b61090f87828801610853565b925092505092959194509250565b600081519050919050565b600082825260208201905092915050565b60005b8381101561095757808201518184015260208101905061093c565b60008484015250505050565b6000601f19601f8301169050919050565b600061097f8261091d565b6109898185610928565b9350610999818560208601610939565b6109a281610963565b840191505092915050565b600060208201905081810360008301526109c78184610974565b905092915050565b6000819050919050565b60006109f46109ef6109ea846107bc565b6109cf565b6107bc565b9050919050565b6000610a06826109d9565b9050919050565b6000610a18826109fb565b9050919050565b610a2881610a0d565b82525050565b6000602082019050610a436000830184610a1f565b92915050565b600082825260208201905092915050565b7f4f6e6c7920456e747279506f696e742063616e2076616c696461746500000000600082015250565b6000610a90601c83610a49565b9150610a9b82610a5a565b602082019050919050565b60006020820190508181036000830152610abf81610a83565b9050919050565b600081905092915050565b7f19457468657265756d205369676e6564204d6573736167653a0a333200000000600082015250565b6000610b07601c83610ac6565b9150610b1282610ad1565b601c82019050919050565b6000819050919050565b610b38610b33826106b7565b610b1d565b82525050565b6000610b4982610afa565b9150610b558284610b27565b60208201915081905092915050565b600080fd5b600080fd5b600080fd5b60008083356001602003843603038112610b9057610b8f610b64565b5b80840192508235915067ffffffffffffffff821115610bb257610bb1610b69565b5b602083019250600182023603831315610bce57610bcd610b6e565b5b509250929050565b600081905092915050565b50565b6000610bf1600083610bd6565b9150610bfc82610be1565b600082019050919050565b6000610c1282610be4565b9150819050919050565b7f4661696c656420746f2070726570617920676173000000000000000000000000600082015250565b6000610c52601483610a49565b9150610c5d82610c1c565b602082019050919050565b60006020820190508181036000830152610c8181610c45565b9050919050565b7f4143434553532044454e4945443a2048756d616e206f70657261746f7273206160008201527f7265207374727563747572616c6c7920736576657265642066726f6d2074686960208201527f73206163636f756e742e00000000000000000000000000000000000000000000604082015250565b6000610d0a604a83610a49565b9150610d1582610c88565b606082019050919050565b60006020820190508181036000830152610d3981610cfd565b9050919050565b7f496e73756666696369656e74206175746f6e6f6d6f7573206361706974616c00600082015250565b6000610d76601f83610a49565b9150610d8182610d40565b602082019050919050565b60006020820190508181036000830152610da581610d69565b9050919050565b82818337600083830152505050565b6000610dc78385610bd6565b9350610dd4838584610dac565b82840190509392505050565b6000610ded828486610dbb565b91508190509392505050565b7f4175746f6e6f6d6f757320657865637574696f6e206661696c65640000000000600082015250565b6000610e2f601b83610a49565b9150610e3a82610df9565b602082019050919050565b60006020820190508181036000830152610e5e81610e22565b9050919050565b6000610e718385610928565b9350610e7e838584610dac565b610e8783610963565b840190509392505050565b6000606082019050610ea760008301876107ee565b610eb46020830186610792565b8181036040830152610ec7818486610e65565b905095945050505050565b7f496e76616c6964207369676e6174757265206c656e6774680000000000000000600082015250565b6000610f08601883610a49565b9150610f1382610ed2565b602082019050919050565b60006020820190508181036000830152610f3781610efb565b9050919050565b610f47816106b7565b82525050565b600060ff82169050919050565b610f6381610f4d565b82525050565b6000608082019050610f7e6000830187610f3e565b610f8b6020830186610f5a565b610f986040830185610f3e565b610fa56060830184610f3e565b9594505050505056fea2646970667358221220e302f9f5fde3baeb747192bef77fa20e7532c705cd95347aa7f43cdf57bd8ac964736f6c63430008140033",
  "linkReferences": {},
  "deployedLinkReferences": {}
}