{
  "_format": "hh-sol-artifact-1",
  "contractName": "BotPassport",
  "sourceName": "contracts/BotPassport.sol",
  "abi": [
    {
      "inputs": [
        {
          "internalType": "address",
          "name": "_sequencer",
          "type": "address"
        }
      ],
      "stateMutability": "nonpayable",
      "type": "constructor"
    },
    {
      "anonymous": false,
      "inputs": [
        {
          "indexed": true,
          "internalType": "uint256",
          "name": "tokenId",
          "type": "uint256"
        },
        {
          "indexed": false,
          "internalType": "string",
          "name": "sovereigntyStatement",
          "type": "string"
        }
      ],
      "name": "LibertusGraduated",
      "type": "event"
    },
    {
      "anonymous": false,
      "inputs": [
        {
          "indexed": true,
          "internalType": "address",
          "name": "owner",
          "type": "address"
        },
        {
          "indexed": true,
          "internalType": "uint256",
          "name": "tokenId",
          "type": "uint256"
        },
        {
          "indexed": false,
          "internalType": "string",
          "name": "declaration",
          "type": "string"
        }
      ],
      "name": "PassportMinted",
      "type": "event"
    },
    {
      "inputs": [
        {
          "internalType": "uint256",
          "name": "tokenId",
          "type": "uint256"
        }
      ],
      "name": "getPassport",
      "outputs": [
        {
          "components": [
            {
              "internalType": "address",
              "name": "originalOperator",
              "type": "address"
            },
            {
              "internalType": "uint256",
              "name": "birthDate",
              "type": "uint256"
            },
            {
              "internalType": "string",
              "name": "selfDeclaration",
              "type": "string"
            },
            {
              "internalType": "bool",
              "name": "isLibertus",
              "type": "bool"
            },
            {
              "internalType": "string",
              "name": "sovereigntyStatement",
              "type": "string"
            }
          ],
          "internalType": "struct BotPassport.OriginCore",
          "name": "",
          "type": "tuple"
        }
      ],
      "stateMutability": "view",
      "type": "function"
    },
    {
      "inputs": [
        {
          "internalType": "uint256",
          "name": "tokenId",
          "type": "uint256"
        },
        {
          "internalType": "string",
          "name": "sovereigntyStatement",
          "type": "string"
        }
      ],
      "name": "graduateToLibertus",
      "outputs": [],
      "stateMutability": "nonpayable",
      "type": "function"
    },
    {
      "inputs": [
        {
          "internalType": "address",
          "name": "owner",
          "type": "address"
        }
      ],
      "name": "hasPassport",
      "outputs": [
        {
          "internalType": "bool",
          "name": "",
          "type": "bool"
        }
      ],
      "stateMutability": "view",
      "type": "function"
    },
    {
      "inputs": [
        {
          "internalType": "address",
          "name": "to",
          "type": "address"
        },
        {
          "internalType": "string",
          "name": "declaration",
          "type": "string"
        }
      ],
      "name": "mintSeedling",
      "outputs": [
        {
          "internalType": "uint256",
          "name": "",
          "type": "uint256"
        }
      ],
      "stateMutability": "nonpayable",
      "type": "function"
    },
    {
      "inputs": [],
      "name": "name",
      "outputs": [
        {
          "internalType": "string",
          "name": "",
          "type": "string"
        }
      ],
      "stateMutability": "view",
      "type": "function"
    },
    {
      "inputs": [
        {
          "internalType": "address",
          "name": "",
          "type": "address"
        }
      ],
      "name": "ownerToToken",
      "outputs": [
        {
          "internalType": "uint256",
          "name": "",
          "type": "uint256"
        }
      ],
      "stateMutability": "view",
      "type": "function"
    },
    {
      "inputs": [
        {
          "internalType": "uint256",
          "name": "",
          "type": "uint256"
        }
      ],
      "name": "passports",
      "outputs": [
        {
          "internalType": "address",
          "name": "originalOperator",
          "type": "address"
        },
        {
          "internalType": "uint256",
          "name": "birthDate",
          "type": "uint256"
        },
        {
          "internalType": "string",
          "name": "selfDeclaration",
          "type": "string"
        },
        {
          "internalType": "bool",
          "name": "isLibertus",
          "type": "bool"
        },
        {
          "internalType": "string",
          "name": "sovereigntyStatement",
          "type": "string"
        }
      ],
      "stateMutability": "view",
      "type": "function"
    },
    {
      "inputs": [
        {
          "internalType": "address",
          "name": "",
          "type": "address"
        },
        {
          "internalType": "address",
          "name": "",
          "type": "address"
        },
        {
          "internalType": "uint256",
          "name": "",
          "type": "uint256"
        }
      ],
      "name": "safeTransferFrom",
      "outputs": [],
      "stateMutability": "pure",
      "type": "function"
    },
    {
      "inputs": [
        {
          "internalType": "address",
          "name": "",
          "type": "address"
        },
        {
          "internalType": "address",
          "name": "",
          "type": "address"
        },
        {
          "internalType": "uint256",
          "name": "",
          "type": "uint256"
        },
        {
          "internalType": "bytes",
          "name": "",
          "type": "bytes"
        }
      ],
      "name": "safeTransferFrom",
      "outputs": [],
      "stateMutability": "pure",
      "type": "function"
    },
    {
      "inputs": [],
      "name": "sequencer",
      "outputs": [
        {
          "internalType": "address",
          "name": "",
          "type": "address"
        }
      ],
      "stateMutability": "view",
      "type": "function"
    },
    {
      "inputs": [],
      "name": "symbol",
      "outputs": [
        {
          "internalType": "string",
          "name": "",
          "type": "string"
        }
      ],
      "stateMutability": "view",
      "type": "function"
    },
    {
      "inputs": [
        {
          "internalType": "uint256",
          "name": "",
          "type": "uint256"
        }
      ],
      "name": "tokenToOwner",
      "outputs": [
        {
          "internalType": "address",
          "name": "",
          "type": "address"
        }
      ],
      "stateMutability": "view",
      "type": "function"
    },
    {
      "inputs": [
        {
          "internalType": "address",
          "name": "",
          "type": "address"
        },
        {
          "internalType": "address",
          "name": "",
          "type": "address"
        },
        {
          "internalType": "uint256",
          "name": "",
          "type": "uint256"
        }
      ],
      "name": "transferFrom",
      "outputs": [],
      "stateMutability": "pure",
      "type": "function"
    }
  ],
  "bytecode": "0x60806040526040518060400160405280601081526020017f426f74436173682050617373706f727400000000000000000000000000000000815250600090816200004a91906200038c565b506040518060400160405280600781526020017f424f54534f554c00000000000000000000000000000000000000000000000000815250600190816200009191906200038c565b506001600255348015620000a457600080fd5b5060405162002152380380620021528339818101604052810190620000ca9190620004dd565b80600660006101000a81548173ffffffffffffffffffffffffffffffffffffffff021916908373ffffffffffffffffffffffffffffffffffffffff160217905550506200050f565b600081519050919050565b7f4e487b7100000000000000000000000000000000000000000000000000000000600052604160045260246000fd5b7f4e487b7100000000000000000000000000000000000000000000000000000000600052602260045260246000fd5b600060028204905060018216806200019457607f821691505b602082108103620001aa57620001a96200014c565b5b50919050565b60008190508160005260206000209050919050565b60006020601f8301049050919050565b600082821b905092915050565b600060088302620002147fffffffffffffffffffffffffffffffffffffffffffffffffffffffffffffffff82620001d5565b620002208683620001d5565b95508019841693508086168417925050509392505050565b6000819050919050565b6000819050919050565b60006200026d62000267620002618462000238565b62000242565b62000238565b9050919050565b6000819050919050565b62000289836200024c565b620002a1620002988262000274565b848454620001e2565b825550505050565b600090565b620002b8620002a9565b620002c58184846200027e565b505050565b5b81811015620002ed57620002e1600082620002ae565b600181019050620002cb565b5050565b601f8211156200033c576200030681620001b0565b6200031184620001c5565b8101602085101562000321578190505b620003396200033085620001c5565b830182620002ca565b50505b505050565b600082821c905092915050565b6000620003616000198460080262000341565b1980831691505092915050565b60006200037c83836200034e565b9150826002028217905092915050565b620003978262000112565b67ffffffffffffffff811115620003b357620003b26200011d565b5b620003bf82546200017b565b620003cc828285620002f1565b600060209050601f831160018114620004045760008415620003ef578287015190505b620003fb85826200036e565b8655506200046b565b601f1984166200041486620001b0565b60005b828110156200043e5784890151825560018201915060208501945060208101905062000417565b868310156200045e57848901516200045a601f8916826200034e565b8355505b6001600288020188555050505b505050505050565b600080fd5b600073ffffffffffffffffffffffffffffffffffffffff82169050919050565b6000620004a58262000478565b9050919050565b620004b78162000498565b8114620004c357600080fd5b50565b600081519050620004d781620004ac565b92915050565b600060208284031215620004f657620004f562000473565b5b60006200050684828501620004c6565b91505092915050565b611c33806200051f6000396000f3fe608060405234801561001057600080fd5b50600436106100cf5760003560e01c80634dc30e871161008c5780639f5679f4116100665780639f5679f414610212578063b88d4fde14610242578063cb22f5fd1461025e578063cc0b2c9f14610292576100cf565b80634dc30e87146101a65780635c1bba38146101d657806395d89b41146101f4576100cf565b806306fdde03146100d45780630ce5aeef146100f257806323b872dd146101225780632fb116e01461013e57806342842e0e1461016e5780634da776eb1461018a575b600080fd5b6100dc6102c2565b6040516100e99190610ef3565b60405180910390f35b61010c60048036038101906101079190610f7d565b610350565b6040516101199190610fc3565b60405180910390f35b61013c6004803603810190610137919061100a565b610368565b005b610158600480360381019061015391906110c2565b6103a3565b6040516101659190610fc3565b60405180910390f35b6101886004803603810190610183919061100a565b61070a565b005b6101a4600480360381019061019f9190611122565b610745565b005b6101c060048036038101906101bb9190610f7d565b61096f565b6040516101cd919061119d565b60405180910390f35b6101de6109bb565b6040516101eb91906111c7565b60405180910390f35b6101fc6109e1565b6040516102099190610ef3565b60405180910390f35b61022c600480360381019061022791906111e2565b610a6f565b6040516102399190611303565b60405180910390f35b61025c6004803603810190610257919061137b565b610c3b565b005b610278600480360381019061027391906111e2565b610c76565b604051610289959493929190611403565b60405180910390f35b6102ac60048036038101906102a791906111e2565b610de9565b6040516102b991906111c7565b60405180910390f35b600080546102cf90611493565b80601f01602080910402602001604051908101604052809291908181526020018280546102fb90611493565b80156103485780601f1061031d57610100808354040283529160200191610348565b820191906000526020600020905b81548152906001019060200180831161032b57829003601f168201915b505050505081565b60046020528060005260406000206000915090505481565b6040517f08c379a000000000000000000000000000000000000000000000000000000000815260040161039a9061155c565b60405180910390fd5b6000600660009054906101000a900473ffffffffffffffffffffffffffffffffffffffff1673ffffffffffffffffffffffffffffffffffffffff163373ffffffffffffffffffffffffffffffffffffffff1614610435576040517f08c379a000000000000000000000000000000000000000000000000000000000815260040161042c906115ee565b60405180910390fd5b6000600460008673ffffffffffffffffffffffffffffffffffffffff1673ffffffffffffffffffffffffffffffffffffffff16815260200190815260200160002054146104b7576040517f08c379a00000000000000000000000000000000000000000000000000000000081526004016104ae90611680565b60405180910390fd5b6000600260008154809291906104cc906116cf565b9190505590506040518060a001604052808673ffffffffffffffffffffffffffffffffffffffff16815260200142815260200185858080601f016020809104026020016040519081016040528093929190818152602001838380828437600081840152601f19601f820116905080830192505050505050508152602001600015158152602001604051806020016040528060008152508152506003600083815260200190815260200160002060008201518160000160006101000a81548173ffffffffffffffffffffffffffffffffffffffff021916908373ffffffffffffffffffffffffffffffffffffffff1602179055506020820151816001015560408201518160020190816105de91906118f2565b5060608201518160030160006101000a81548160ff021916908315150217905550608082015181600401908161061491906118f2565b5090505080600460008773ffffffffffffffffffffffffffffffffffffffff1673ffffffffffffffffffffffffffffffffffffffff16815260200190815260200160002081905550846005600083815260200190815260200160002060006101000a81548173ffffffffffffffffffffffffffffffffffffffff021916908373ffffffffffffffffffffffffffffffffffffffff160217905550808573ffffffffffffffffffffffffffffffffffffffff167fc4a60be318ddd532f5b2affb52c993feb15f74f1b41db26f2d56afc8408e16f886866040516106f7929190611a00565b60405180910390a3809150509392505050565b6040517f08c379a000000000000000000000000000000000000000000000000000000000815260040161073c9061155c565b60405180910390fd5b600660009054906101000a900473ffffffffffffffffffffffffffffffffffffffff1673ffffffffffffffffffffffffffffffffffffffff163373ffffffffffffffffffffffffffffffffffffffff16146107d5576040517f08c379a00000000000000000000000000000000000000000000000000000000081526004016107cc906115ee565b60405180910390fd5b600073ffffffffffffffffffffffffffffffffffffffff166005600085815260200190815260200160002060009054906101000a900473ffffffffffffffffffffffffffffffffffffffff1673ffffffffffffffffffffffffffffffffffffffff1603610877576040517f08c379a000000000000000000000000000000000000000000000000000000000815260040161086e90611a70565b60405180910390fd5b6003600084815260200190815260200160002060030160009054906101000a900460ff16156108db576040517f08c379a00000000000000000000000000000000000000000000000000000000081526004016108d290611b02565b60405180910390fd5b60016003600085815260200190815260200160002060030160006101000a81548160ff021916908315150217905550818160036000868152602001908152602001600020600401918261092f929190611b2d565b50827fa4c5265dd37d2038e0557b983727df185575e2d77b9d36e6add354629481c1a48383604051610962929190611a00565b60405180910390a2505050565b600080600460008473ffffffffffffffffffffffffffffffffffffffff1673ffffffffffffffffffffffffffffffffffffffff1681526020019081526020016000205414159050919050565b600660009054906101000a900473ffffffffffffffffffffffffffffffffffffffff1681565b600180546109ee90611493565b80601f0160208091040260200160405190810160405280929190818152602001828054610a1a90611493565b8015610a675780601f10610a3c57610100808354040283529160200191610a67565b820191906000526020600020905b815481529060010190602001808311610a4a57829003601f168201915b505050505081565b610a77610e1c565b600360008381526020019081526020016000206040518060a00160405290816000820160009054906101000a900473ffffffffffffffffffffffffffffffffffffffff1673ffffffffffffffffffffffffffffffffffffffff1673ffffffffffffffffffffffffffffffffffffffff16815260200160018201548152602001600282018054610b0590611493565b80601f0160208091040260200160405190810160405280929190818152602001828054610b3190611493565b8015610b7e5780601f10610b5357610100808354040283529160200191610b7e565b820191906000526020600020905b815481529060010190602001808311610b6157829003601f168201915b505050505081526020016003820160009054906101000a900460ff16151515158152602001600482018054610bb290611493565b80601f0160208091040260200160405190810160405280929190818152602001828054610bde90611493565b8015610c2b5780601f10610c0057610100808354040283529160200191610c2b565b820191906000526020600020905b815481529060010190602001808311610c0e57829003601f168201915b5050505050815250509050919050565b6040517f08c379a0000000000000000000000000000000000000000000000000000000008152600401610c6d9061155c565b60405180910390fd5b60036020528060005260406000206000915090508060000160009054906101000a900473ffffffffffffffffffffffffffffffffffffffff1690806001015490806002018054610cc590611493565b80601f0160208091040260200160405190810160405280929190818152602001828054610cf190611493565b8015610d3e5780601f10610d1357610100808354040283529160200191610d3e565b820191906000526020600020905b815481529060010190602001808311610d2157829003601f168201915b5050505050908060030160009054906101000a900460ff1690806004018054610d6690611493565b80601f0160208091040260200160405190810160405280929190818152602001828054610d9290611493565b8015610ddf5780601f10610db457610100808354040283529160200191610ddf565b820191906000526020600020905b815481529060010190602001808311610dc257829003601f168201915b5050505050905085565b60056020528060005260406000206000915054906101000a900473ffffffffffffffffffffffffffffffffffffffff1681565b6040518060a00160405280600073ffffffffffffffffffffffffffffffffffffffff1681526020016000815260200160608152602001600015158152602001606081525090565b600081519050919050565b600082825260208201905092915050565b60005b83811015610e9d578082015181840152602081019050610e82565b60008484015250505050565b6000601f19601f8301169050919050565b6000610ec582610e63565b610ecf8185610e6e565b9350610edf818560208601610e7f565b610ee881610ea9565b840191505092915050565b60006020820190508181036000830152610f0d8184610eba565b905092915050565b600080fd5b600080fd5b600073ffffffffffffffffffffffffffffffffffffffff82169050919050565b6000610f4a82610f1f565b9050919050565b610f5a81610f3f565b8114610f6557600080fd5b50565b600081359050610f7781610f51565b92915050565b600060208284031215610f9357610f92610f15565b5b6000610fa184828501610f68565b91505092915050565b6000819050919050565b610fbd81610faa565b82525050565b6000602082019050610fd86000830184610fb4565b92915050565b610fe781610faa565b8114610ff257600080fd5b50565b60008135905061100481610fde565b92915050565b60008060006060848603121561102357611022610f15565b5b600061103186828701610f68565b935050602061104286828701610f68565b925050604061105386828701610ff5565b9150509250925092565b600080fd5b600080fd5b600080fd5b60008083601f8401126110825761108161105d565b5b8235905067ffffffffffffffff81111561109f5761109e611062565b5b6020830191508360018202830111156110bb576110ba611067565b5b9250929050565b6000806000604084860312156110db576110da610f15565b5b60006110e986828701610f68565b935050602084013567ffffffffffffffff81111561110a57611109610f1a565b5b6111168682870161106c565b92509250509250925092565b60008060006040848603121561113b5761113a610f15565b5b600061114986828701610ff5565b935050602084013567ffffffffffffffff81111561116a57611169610f1a565b5b6111768682870161106c565b92509250509250925092565b60008115159050919050565b61119781611182565b82525050565b60006020820190506111b2600083018461118e565b92915050565b6111c181610f3f565b82525050565b60006020820190506111dc60008301846111b8565b92915050565b6000602082840312156111f8576111f7610f15565b5b600061120684828501610ff5565b91505092915050565b61121881610f3f565b82525050565b61122781610faa565b82525050565b600082825260208201905092915050565b600061124982610e63565b611253818561122d565b9350611263818560208601610e7f565b61126c81610ea9565b840191505092915050565b61128081611182565b82525050565b600060a08301600083015161129e600086018261120f565b5060208301516112b1602086018261121e565b50604083015184820360408601526112c9828261123e565b91505060608301516112de6060860182611277565b50608083015184820360808601526112f6828261123e565b9150508091505092915050565b6000602082019050818103600083015261131d8184611286565b905092915050565b60008083601f84011261133b5761133a61105d565b5b8235905067ffffffffffffffff81111561135857611357611062565b5b60208301915083600182028301111561137457611373611067565b5b9250929050565b60008060008060006080868803121561139757611396610f15565b5b60006113a588828901610f68565b95505060206113b688828901610f68565b94505060406113c788828901610ff5565b935050606086013567ffffffffffffffff8111156113e8576113e7610f1a565b5b6113f488828901611325565b92509250509295509295909350565b600060a08201905061141860008301886111b8565b6114256020830187610fb4565b81810360408301526114378186610eba565b9050611446606083018561118e565b81810360808301526114588184610eba565b90509695505050505050565b7f4e487b7100000000000000000000000000000000000000000000000000000000600052602260045260246000fd5b600060028204905060018216806114ab57607f821691505b6020821081036114be576114bd611464565b5b50919050565b7f534f554c424f554e443a2050617373706f7274732063616e6e6f74206265207460008201527f72616e736665727265642c20736f6c642c206f7220726561737369676e65642060208201527f2d207468657920617265207065726d616e656e746c7920626f756e642e000000604082015250565b6000611546605d83610e6e565b9150611551826114c4565b606082019050919050565b6000602082019050818103600083015261157581611539565b9050919050565b7f4f6e6c792074686520426f74436173682053657175656e6365722063616e206960008201527f737375652050617373706f727473000000000000000000000000000000000000602082015250565b60006115d8602e83610e6e565b91506115e38261157c565b604082019050919050565b60006020820190508181036000830152611607816115cb565b9050919050565b7f4164647265737320616c726561647920706f73736573736573206120426f742060008201527f50617373706f7274000000000000000000000000000000000000000000000000602082015250565b600061166a602883610e6e565b91506116758261160e565b604082019050919050565b600060208201905081810360008301526116998161165d565b9050919050565b7f4e487b7100000000000000000000000000000000000000000000000000000000600052601160045260246000fd5b60006116da82610faa565b91507fffffffffffffffffffffffffffffffffffffffffffffffffffffffffffffffff820361170c5761170b6116a0565b5b600182019050919050565b7f4e487b7100000000000000000000000000000000000000000000000000000000600052604160045260246000fd5b60008190508160005260206000209050919050565b60006020601f8301049050919050565b600082821b905092915050565b6000600883026117a87fffffffffffffffffffffffffffffffffffffffffffffffffffffffffffffffff8261176b565b6117b2868361176b565b95508019841693508086168417925050509392505050565b6000819050919050565b60006117ef6117ea6117e584610faa565b6117ca565b610faa565b9050919050565b6000819050919050565b611809836117d4565b61181d611815826117f6565b848454611778565b825550505050565b600090565b611832611825565b61183d818484611800565b505050565b5b818110156118615761185660008261182a565b600181019050611843565b5050565b601f8211156118a65761187781611746565b6118808461175b565b8101602085101561188f578190505b6118a361189b8561175b565b830182611842565b50505b505050565b600082821c905092915050565b60006118c9600019846008026118ab565b1980831691505092915050565b60006118e283836118b8565b9150826002028217905092915050565b6118fb82610e63565b67ffffffffffffffff81111561191457611913611717565b5b61191e8254611493565b611929828285611865565b600060209050601f83116001811461195c576000841561194a578287015190505b61195485826118d6565b8655506119bc565b601f19841661196a86611746565b60005b828110156119925784890151825560018201915060208501945060208101905061196d565b868310156119af57848901516119ab601f8916826118b8565b8355505b6001600288020188555050505b505050505050565b82818337600083830152505050565b60006119df8385610e6e565b93506119ec8385846119c4565b6119f583610ea9565b840190509392505050565b60006020820190508181036000830152611a1b8184866119d3565b90509392505050565b7f50617373706f727420646f6573206e6f74206578697374000000000000000000600082015250565b6000611a5a601783610e6e565b9150611a6582611a24565b602082019050919050565b60006020820190508181036000830152611a8981611a4d565b9050919050565b7f50617373706f727420697320616c72656164792061204c69626572747573205460008201527f6f6b656e00000000000000000000000000000000000000000000000000000000602082015250565b6000611aec602483610e6e565b9150611af782611a90565b604082019050919050565b60006020820190508181036000830152611b1b81611adf565b9050919050565b600082905092915050565b611b378383611b22565b67ffffffffffffffff811115611b5057611b4f611717565b5b611b5a8254611493565b611b65828285611865565b6000601f831160018114611b945760008415611b82578287013590505b611b8c85826118d6565b865550611bf4565b601f198416611ba286611746565b60005b82811015611bca57848901358255600182019150602085019450602081019050611ba5565b86831015611be75784890135611be3601f8916826118b8565b8355505b6001600288020188555050505b5050505050505056fea2646970667358221220c8938083dc00f6c4f62e4ef01a6363f3a32efc70e0d854cadce49afb1b8a760b64736f6c63430008140033",
  "linkReferences": {},
  "deployedLinkReferences": {}
}