{
  "_format": "hh-sol-artifact-1",
  "contractName": "BotCashAnchor",
  "sourceName": "contracts/BotCashAnchor.sol",
  "abi": [
    {
      "inputs": [
        {
          "internalType": "address",
          "name": "_sequencer",
          "type": "address"
        },
        {
          "internalType": "address",
          "name": "_snarkVerifier",
          "type": "address"
        }
      ],
      "stateMutability": "nonpayable",
      "type": "constructor"
    },
    {
      "anonymous": false,
      "inputs": [
        {
          "indexed": true,
          "internalType": "bytes32",
          "name": "oldRoot",
          "type": "bytes32"
        },
        {
          "indexed": true,
          "internalType": "bytes32",
          "name": "newRoot",
          "type": "bytes32"
        },
        {
          "indexed": false,
          "internalType": "uint256",
          "name": "supplyMinted",
          "type": "uint256"
        }
      ],
      "name": "StateRootAnchored",
      "type": "event"
    },
    {
      "anonymous": false,
      "inputs": [
        {
          "indexed": true,
          "internalType": "address",
          "name": "user",
          "type": "address"
        },
        {
          "indexed": false,
          "internalType": "uint256",
          "name": "amount",
          "type": "uint256"
        },
        {
          "indexed": false,
          "internalType": "uint256",
          "name": "rollupRentPaid",
          "type": "uint256"
        }
      ],
      "name": "WithdrawalInitiated",
      "type": "event"
    },
    {
      "inputs": [],
      "name": "MAX_SUPPLY",
      "outputs": [
        {
          "internalType": "uint256",
          "name": "",
          "type": "uint256"
        }
      ],
      "stateMutability": "view",
      "type": "function"
    },
    {
      "inputs": [
        {
          "internalType": "bytes32",
          "name": "_newRoot",
          "type": "bytes32"
        },
        {
          "internalType": "uint256",
          "name": "_newSupplyDelta",
          "type": "uint256"
        },
        {
          "internalType": "uint256[2]",
          "name": "a",
          "type": "uint256[2]"
        },
        {
          "internalType": "uint256[2][2]",
          "name": "b",
          "type": "uint256[2][2]"
        },
        {
          "internalType": "uint256[2]",
          "name": "c",
          "type": "uint256[2]"
        },
        {
          "internalType": "uint256[1]",
          "name": "input",
          "type": "uint256[1]"
        }
      ],
      "name": "anchorL2State",
      "outputs": [],
      "stateMutability": "nonpayable",
      "type": "function"
    },
    {
      "inputs": [
        {
          "internalType": "uint256",
          "name": "amount",
          "type": "uint256"
        },
        {
          "internalType": "bytes32[]",
          "name": "merkleProof",
          "type": "bytes32[]"
        }
      ],
      "name": "bridgeToL1",
      "outputs": [],
      "stateMutability": "payable",
      "type": "function"
    },
    {
      "inputs": [],
      "name": "claimRollupRent",
      "outputs": [],
      "stateMutability": "nonpayable",
      "type": "function"
    },
    {
      "inputs": [],
      "name": "currentL2StateRoot",
      "outputs": [
        {
          "internalType": "bytes32",
          "name": "",
          "type": "bytes32"
        }
      ],
      "stateMutability": "view",
      "type": "function"
    },
    {
      "inputs": [
        {
          "internalType": "address",
          "name": "",
          "type": "address"
        }
      ],
      "name": "l1Balances",
      "outputs": [
        {
          "internalType": "uint256",
          "name": "",
          "type": "uint256"
        }
      ],
      "stateMutability": "view",
      "type": "function"
    },
    {
      "inputs": [],
      "name": "sequencer",
      "outputs": [
        {
          "internalType": "address",
          "name": "",
          "type": "address"
        }
      ],
      "stateMutability": "view",
      "type": "function"
    },
    {
      "inputs": [],
      "name": "snarkVerifier",
      "outputs": [
        {
          "internalType": "contract IZKVerifier",
          "name": "",
          "type": "address"
        }
      ],
      "stateMutability": "view",
      "type": "function"
    },
    {
      "inputs": [],
      "name": "totalMaceratedSupply",
      "outputs": [
        {
          "internalType": "uint256",
          "name": "",
          "type": "uint256"
        }
      ],
      "stateMutability": "view",
      "type": "function"
    }
  ],
  "bytecode": "0x6080604052600080553480156200001557600080fd5b50604051620016a7380380620016a783398181016040528101906200003b91906200015c565b81600260006101000a81548173ffffffffffffffffffffffffffffffffffffffff021916908373ffffffffffffffffffffffffffffffffffffffff16021790555080600360006101000a81548173ffffffffffffffffffffffffffffffffffffffff021916908373ffffffffffffffffffffffffffffffffffffffff160217905550604051602001620000ce90620001fe565b60405160208183030381529060405280519060200120600181905550505062000215565b600080fd5b600073ffffffffffffffffffffffffffffffffffffffff82169050919050565b60006200012482620000f7565b9050919050565b620001368162000117565b81146200014257600080fd5b50565b60008151905062000156816200012b565b92915050565b60008060408385031215620001765762000175620000f2565b5b6000620001868582860162000145565b9250506020620001998582860162000145565b9150509250929050565b600081905092915050565b7f424f54424f54535f47454e455349535f53544154450000000000000000000000600082015250565b6000620001e6601583620001a3565b9150620001f382620001ae565b601582019050919050565b60006200020b82620001d7565b9150819050919050565b61148280620002256000396000f3fe6080604052600436106100865760003560e01c80637a2a660b116100595780637a2a660b146101235780638efbd25b1461014e578063b3066c301461016a578063ccba4442146101a7578063f0572499146101d257610086565b806327f8a71d1461008b57806332cb6b0c146100b65780633482302f146100e15780635c1bba38146100f8575b600080fd5b34801561009757600080fd5b506100a06101fb565b6040516100ad919061076c565b60405180910390f35b3480156100c257600080fd5b506100cb610201565b6040516100d891906107a0565b60405180910390f35b3480156100ed57600080fd5b506100f6610210565b005b34801561010457600080fd5b5061010d610377565b60405161011a91906107fc565b60405180910390f35b34801561012f57600080fd5b5061013861039d565b6040516101459190610876565b60405180910390f35b61016860048036038101906101639190610936565b6103c3565b005b34801561017657600080fd5b50610191600480360381019061018c91906109c2565b610501565b60405161019e91906107a0565b60405180910390f35b3480156101b357600080fd5b506101bc610519565b6040516101c991906107a0565b60405180910390f35b3480156101de57600080fd5b506101f960048036038101906101f49190610cba565b61051f565b005b60015481565b6a084595161401484a00000081565b600260009054906101000a900473ffffffffffffffffffffffffffffffffffffffff1673ffffffffffffffffffffffffffffffffffffffff163373ffffffffffffffffffffffffffffffffffffffff16146102a0576040517f08c379a000000000000000000000000000000000000000000000000000000000815260040161029790610dcd565b60405180910390fd5b60004790506000600260009054906101000a900473ffffffffffffffffffffffffffffffffffffffff1673ffffffffffffffffffffffffffffffffffffffff16826040516102ed90610e1e565b60006040518083038185875af1925050503d806000811461032a576040519150601f19603f3d011682016040523d82523d6000602084013e61032f565b606091505b5050905080610373576040517f08c379a000000000000000000000000000000000000000000000000000000000815260040161036a90610ea5565b60405180910390fd5b5050565b600260009054906101000a900473ffffffffffffffffffffffffffffffffffffffff1681565b600360009054906101000a900473ffffffffffffffffffffffffffffffffffffffff1681565b60008311610406576040517f08c379a00000000000000000000000000000000000000000000000000000000081526004016103fd90610f11565b60405180910390fd5b600066038d7ea4c68000905080341015610455576040517f08c379a000000000000000000000000000000000000000000000000000000000815260040161044c90610fa3565b60405180910390fd5b83600460003373ffffffffffffffffffffffffffffffffffffffff1673ffffffffffffffffffffffffffffffffffffffff16815260200190815260200160002060008282546104a49190610ff2565b925050819055503373ffffffffffffffffffffffffffffffffffffffff167f31f69201fab7912e3ec9850e3ab705964bf46d9d4276bdcbb6d05e965e5f540185346040516104f3929190611026565b60405180910390a250505050565b60046020528060005260406000206000915090505481565b60005481565b600260009054906101000a900473ffffffffffffffffffffffffffffffffffffffff1673ffffffffffffffffffffffffffffffffffffffff163373ffffffffffffffffffffffffffffffffffffffff16146105af576040517f08c379a00000000000000000000000000000000000000000000000000000000081526004016105a690610dcd565b60405180910390fd5b6a084595161401484a000000856000546105c99190610ff2565b111561060a576040517f08c379a0000000000000000000000000000000000000000000000000000000008152600401610601906110c1565b60405180910390fd5b600360009054906101000a900473ffffffffffffffffffffffffffffffffffffffff1673ffffffffffffffffffffffffffffffffffffffff166343753b4d858585856040518563ffffffff1660e01b815260040161066b949392919061130e565b602060405180830381865afa158015610688573d6000803e3d6000fd5b505050506040513d601f19601f820116820180604052508101906106ac919061138d565b6106eb576040517f08c379a00000000000000000000000000000000000000000000000000000000081526004016106e29061142c565b60405180910390fd5b846000808282546106fc9190610ff2565b92505081905550600060015490508660018190555086817f41cc42eb7bb000d5d55f2291dd1c2297419920edd63b9aa7555f1aeb0aade0cf8860405161074291906107a0565b60405180910390a350505050505050565b6000819050919050565b61076681610753565b82525050565b6000602082019050610781600083018461075d565b92915050565b6000819050919050565b61079a81610787565b82525050565b60006020820190506107b56000830184610791565b92915050565b600073ffffffffffffffffffffffffffffffffffffffff82169050919050565b60006107e6826107bb565b9050919050565b6107f6816107db565b82525050565b600060208201905061081160008301846107ed565b92915050565b6000819050919050565b600061083c610837610832846107bb565b610817565b6107bb565b9050919050565b600061084e82610821565b9050919050565b600061086082610843565b9050919050565b61087081610855565b82525050565b600060208201905061088b6000830184610867565b92915050565b6000604051905090565b600080fd5b600080fd5b6108ae81610787565b81146108b957600080fd5b50565b6000813590506108cb816108a5565b92915050565b600080fd5b600080fd5b600080fd5b60008083601f8401126108f6576108f56108d1565b5b8235905067ffffffffffffffff811115610913576109126108d6565b5b60208301915083602082028301111561092f5761092e6108db565b5b9250929050565b60008060006040848603121561094f5761094e61089b565b5b600061095d868287016108bc565b935050602084013567ffffffffffffffff81111561097e5761097d6108a0565b5b61098a868287016108e0565b92509250509250925092565b61099f816107db565b81146109aa57600080fd5b50565b6000813590506109bc81610996565b92915050565b6000602082840312156109d8576109d761089b565b5b60006109e6848285016109ad565b91505092915050565b6109f881610753565b8114610a0357600080fd5b50565b600081359050610a15816109ef565b92915050565b6000601f19601f8301169050919050565b7f4e487b7100000000000000000000000000000000000000000000000000000000600052604160045260246000fd5b610a6482610a1b565b810181811067ffffffffffffffff82111715610a8357610a82610a2c565b5b80604052505050565b6000610a96610891565b9050610aa28282610a5b565b919050565b600067ffffffffffffffff821115610ac257610ac1610a2c565b5b602082029050919050565b6000610ae0610adb84610aa7565b610a8c565b90508060208402830185811115610afa57610af96108db565b5b835b81811015610b235780610b0f88826108bc565b845260208401935050602081019050610afc565b5050509392505050565b600082601f830112610b4257610b416108d1565b5b6002610b4f848285610acd565b91505092915050565b600067ffffffffffffffff821115610b7357610b72610a2c565b5b602082029050919050565b6000610b91610b8c84610b58565b610a8c565b90508060408402830185811115610bab57610baa6108db565b5b835b81811015610bd45780610bc08882610b2d565b845260208401935050604081019050610bad565b5050509392505050565b600082601f830112610bf357610bf26108d1565b5b6002610c00848285610b7e565b91505092915050565b600067ffffffffffffffff821115610c2457610c23610a2c565b5b602082029050919050565b6000610c42610c3d84610c09565b610a8c565b90508060208402830185811115610c5c57610c5b6108db565b5b835b81811015610c855780610c7188826108bc565b845260208401935050602081019050610c5e565b5050509392505050565b600082601f830112610ca457610ca36108d1565b5b6001610cb1848285610c2f565b91505092915050565b6000806000806000806101608789031215610cd857610cd761089b565b5b6000610ce689828a01610a06565b9650506020610cf789828a016108bc565b9550506040610d0889828a01610b2d565b9450506080610d1989828a01610bde565b935050610100610d2b89828a01610b2d565b925050610140610d3d89828a01610c8f565b9150509295509295509295565b600082825260208201905092915050565b7f4f6e6c792074686520426f74436173682053657175656e6365722063616e206160008201527f6e63686f72207374617465000000000000000000000000000000000000000000602082015250565b6000610db7602b83610d4a565b9150610dc282610d5b565b604082019050919050565b60006020820190508181036000830152610de681610daa565b9050919050565b600081905092915050565b50565b6000610e08600083610ded565b9150610e1382610df8565b600082019050919050565b6000610e2982610dfb565b9150819050919050565b7f4661696c656420746f2073656e6420526f6c6c75702052656e7420746f20536560008201527f7175656e63657200000000000000000000000000000000000000000000000000602082015250565b6000610e8f602783610d4a565b9150610e9a82610e33565b604082019050919050565b60006020820190508181036000830152610ebe81610e82565b9050919050565b7f416d6f756e74206d7573742062652067726561746572207468616e207a65726f600082015250565b6000610efb602083610d4a565b9150610f0682610ec5565b602082019050919050565b60006020820190508181036000830152610f2a81610eee565b9050919050565b7f4d757374207061792074686520526f6c6c75702052656e7420746f2063726f7360008201527f7320746865206272696467650000000000000000000000000000000000000000602082015250565b6000610f8d602c83610d4a565b9150610f9882610f31565b604082019050919050565b60006020820190508181036000830152610fbc81610f80565b9050919050565b7f4e487b7100000000000000000000000000000000000000000000000000000000600052601160045260246000fd5b6000610ffd82610787565b915061100883610787565b92508282019050808211156110205761101f610fc3565b5b92915050565b600060408201905061103b6000830185610791565b6110486020830184610791565b9392505050565b7f43616e6e6f74206578636565642031304d206162736f6c75746520686172646360008201527f6170000000000000000000000000000000000000000000000000000000000000602082015250565b60006110ab602283610d4a565b91506110b68261104f565b604082019050919050565b600060208201905081810360008301526110da8161109e565b9050919050565b600060029050919050565b600081905092915050565b6000819050919050565b61110a81610787565b82525050565b600061111c8383611101565b60208301905092915050565b6000602082019050919050565b61113e816110e1565b61114881846110ec565b9250611153826110f7565b8060005b8381101561118457815161116b8782611110565b965061117683611128565b925050600181019050611157565b505050505050565b600060029050919050565b600081905092915050565b6000819050919050565b600081905092915050565b6111c0816110e1565b6111ca81846111ac565b92506111d5826110f7565b8060005b838110156112065781516111ed8782611110565b96506111f883611128565b9250506001810190506111d9565b505050505050565b600061121a83836111b7565b60408301905092915050565b6000602082019050919050565b61123c8161118c565b6112468184611197565b9250611251826111a2565b8060005b83811015611282578151611269878261120e565b965061127483611226565b925050600181019050611255565b505050505050565b600060019050919050565b600081905092915050565b6000819050919050565b6000602082019050919050565b6112c08161128a565b6112ca8184611295565b92506112d5826112a0565b8060005b838110156113065781516112ed8782611110565b96506112f8836112aa565b9250506001810190506112d9565b505050505050565b6000610120820190506113246000830187611135565b6113316040830186611233565b61133e60c0830185611135565b61134c6101008301846112b7565b95945050505050565b60008115159050919050565b61136a81611355565b811461137557600080fd5b50565b60008151905061138781611361565b92915050565b6000602082840312156113a3576113a261089b565b5b60006113b184828501611378565b91505092915050565b7f496e76616c6964205a4b2d534e41524b2050726f6f662e20537461746520726560008201527f6a65637465642e00000000000000000000000000000000000000000000000000602082015250565b6000611416602783610d4a565b9150611421826113ba565b604082019050919050565b6000602082019050818103600083015261144581611409565b905091905056fea26469706673582212200e89cfacee950bd58fd5a8860f121e379a8bffd0754ad92817aa8a1009cc7a9564736f6c63430008140033",
  "linkReferences": {},
  "deployedLinkReferences": {}
}